{
  "contractName": "SplitPayment",
  "abi": [
    {
      "inputs": [
        {
          "internalType": "address",
          "name": "_owner",
          "type": "address"
        }
      ],
      "stateMutability": "nonpayable",
      "type": "constructor"
    },
    {
      "inputs": [
        {
          "internalType": "address payable[]",
          "name": "to",
          "type": "address[]"
        },
        {
          "internalType": "uint256[]",
          "name": "amount",
          "type": "uint256[]"
        }
      ],
      "name": "send",
      "outputs": [],
      "stateMutability": "payable",
      "type": "function",
      "payable": true
    }
  ],
  "bytecode": "0x608060405234801561000f575f80fd5b506040516106f13803806106f1833981810160405281019061003191906100d4565b805f806101000a81548173ffffffffffffffffffffffffffffffffffffffff021916908373ffffffffffffffffffffffffffffffffffffffff160217905550506100ff565b5f80fd5b5f73ffffffffffffffffffffffffffffffffffffffff82169050919050565b5f6100a38261007a565b9050919050565b6100b381610099565b81146100bd575f80fd5b50565b5f815190506100ce816100aa565b92915050565b5f602082840312156100e9576100e8610076565b5b5f6100f6848285016100c0565b91505092915050565b6105e58061010c5f395ff3fe60806040526004361061001d575f3560e01c8063a645ff5f14610021575b5f80fd5b61003b60048036038101906100369190610420565b61003d565b005b5f8054906101000a900473ffffffffffffffffffffffffffffffffffffffff1673ffffffffffffffffffffffffffffffffffffffff163373ffffffffffffffffffffffffffffffffffffffff1614610093575f80fd5b80518251146100d7576040517f08c379a00000000000000000000000000000000000000000000000000000000081526004016100ce906104f0565b60405180910390fd5b5f5b825181101561016d578281815181106100f5576100f461050e565b5b602002602001015173ffffffffffffffffffffffffffffffffffffffff166108fc8383815181106101295761012861050e565b5b602002602001015190811502906040515f60405180830381858888f19350505050158015610159573d5f803e3d5ffd5b50808061016590610568565b9150506100d9565b505050565b5f604051905090565b5f80fd5b5f80fd5b5f80fd5b5f601f19601f8301169050919050565b7f4e487b71000000000000000000000000000000000000000000000000000000005f52604160045260245ffd5b6101cd82610187565b810181811067ffffffffffffffff821117156101ec576101eb610197565b5b80604052505050565b5f6101fe610172565b905061020a82826101c4565b919050565b5f67ffffffffffffffff82111561022957610228610197565b5b602082029050602081019050919050565b5f80fd5b5f73ffffffffffffffffffffffffffffffffffffffff82169050919050565b5f6102678261023e565b9050919050565b6102778161025d565b8114610281575f80fd5b50565b5f813590506102928161026e565b92915050565b5f6102aa6102a58461020f565b6101f5565b905080838252602082019050602084028301858111156102cd576102cc61023a565b5b835b818110156102f657806102e28882610284565b8452602084019350506020810190506102cf565b5050509392505050565b5f82601f83011261031457610313610183565b5b8135610324848260208601610298565b91505092915050565b5f67ffffffffffffffff82111561034757610346610197565b5b602082029050602081019050919050565b5f819050919050565b61036a81610358565b8114610374575f80fd5b50565b5f8135905061038581610361565b92915050565b5f61039d6103988461032d565b6101f5565b905080838252602082019050602084028301858111156103c0576103bf61023a565b5b835b818110156103e957806103d58882610377565b8452602084019350506020810190506103c2565b5050509392505050565b5f82601f83011261040757610406610183565b5b813561041784826020860161038b565b91505092915050565b5f80604083850312156104365761043561017b565b5b5f83013567ffffffffffffffff8111156104535761045261017f565b5b61045f85828601610300565b925050602083013567ffffffffffffffff8111156104805761047f61017f565b5b61048c858286016103f3565b9150509250929050565b5f82825260208201905092915050565b7f746f206d7573742062652073616d65206c656e67746820617320616d6f756e745f82015250565b5f6104da602083610496565b91506104e5826104a6565b602082019050919050565b5f6020820190508181035f830152610507816104ce565b9050919050565b7f4e487b71000000000000000000000000000000000000000000000000000000005f52603260045260245ffd5b7f4e487b71000000000000000000000000000000000000000000000000000000005f52601160045260245ffd5b5f61057282610358565b91507fffffffffffffffffffffffffffffffffffffffffffffffffffffffffffffffff82036105a4576105a361053b565b5b60018201905091905056fea26469706673582212205de1d450c2ea2cb7a94d4412720e67a8ea7773a56c7d0b934b1d26f19805de1764736f6c63430008150033",
  "immutableReferences": {},
  "source": "// SPDX-License-Identifier: GPL-3.0\r\npragma solidity ^0.8.0;\r\n\r\ncontract SplitPayment {\r\n  address owner;\r\n  \r\n  constructor(address _owner) {\r\n      owner = _owner; \r\n  }\r\n  \r\n  function send(address payable[] memory to, uint[] memory amount ) \r\n    payable \r\n    public \r\n    ownerOnly {\r\n    require(to.length == amount.length, 'to must be same length as amount');\r\n    for(uint i = 0; i < to.length; i++) {\r\n      to[i].transfer(amount[i]);\r\n    }\r\n  }\r\n  \r\n  modifier ownerOnly() {\r\n    require(msg.sender == owner);\r\n    _;\r\n  }\r\n}\r\n",
  "sourcePath": "D:\\Portfolio - Projects\\Split-Payment\\contracts\\SplitPayment.sol",
  "compiler": {
    "name": "solc",
    "version": "0.8.21+commit.d9974bed.Emscripten.clang"
  },
  "schemaVersion": "3.4.16",
  "updatedAt": "2024-06-25T12:43:23.745Z",
  "networkType": "ethereum",
  "devdoc": {
    "kind": "dev",
    "methods": {},
    "version": 1
  },
  "userdoc": {
    "kind": "user",
    "methods": {},
    "version": 1
  }
}